:020000040000FA
:060000000A128A110C280F
:10000800FE00030EF7000A08F8000A128A11E32816
:100018000A128A110F280A128A1193210A128A11C8
:10002800BE000A128A1194210A128A11BF00831392
:10003800203084003A300A128A118B210A128A1160
:10004800F001F101F201F301F40183010A128A11AE
:100058002D28FF30831603138800860183120313AB
:100068008601831603130C14831203130C100B1749
:100078008B178E018F019010101290120A128A119C
:100088002E210A128A11831203131014081C4D28FA
:100098004E2857280130B4000030B5000130B000B8
:1000A8000030B1005928B401B501881C5C285D28CE
:1000B80066280130B2000030B3000130AE000030D5
:1000C800AF006828B201B3013008310403196D2864
:1000D8006E2884282E082F0403197328742884286E
:1000E80034083504031D79287A2884283208330413
:1000F800031D7F2880288428B001B101AE01AF011B
:1001080030083104031D89288A2890282E082F04D6
:1001180003198F28902896280130F0000030F1004C
:1001280086159928F001F10186113E083F0403194C
:100138009E289F28A928700871040319A428A528B7
:10014800A9280130A4000030A5003E083F04031D83
:10015800AE28AF28B92870087104031DB428B52843
:10016800B9280130A6000030A70026082704031983
:10017800BE28BF28CE280A128A112E210A128A11F7
:1001880083120313A601A7010130BE000030BF008F
:1001980086100611240825040319D328D4284A28D0
:1001A8000A128A115E210A128A1183120313A4010A
:1001B800A501BE01BF014A280A128A110C28831220
:1001C80003130C1CE828E92827292C082D04031DF3
:1001D800EE28EF28F528700871040319F428F5288B
:1001E80026290130F5007508F40708307406031D48
:1001F800FE28FF28102901308606720873040319A7
:1002080006290829013009290030F500F60175088A
:10021800F2007608F300F4017218132917298312E3
:10022800031386141A2983120313861072087304A1
:1002380003191F292329831203130615262983125C
:10024800031306110C1078088A00770E8300FE0E3F
:100258007E0E090083120313BC01BD010616D530BA
:1002680083120313BA0038293929BA0B37293C29D4
:100278003D293E29831203130612193083120313F2
:10028800BB000430BA00BA0B4729BB0B4729000052
:10029800013083120313BC070318BD0A0030BD07E1
:1002A80000303D02323003193C02031C5C295D29F1
:1002B8003229080083120313BC01BD0106169F30C2
:1002C80083120313BA006829BA0B67296B298312B2
:1002D80003130612193083120313BB00ED30BA0062
:1002E800BA0B7429BB0B74297929013083120313C3
:1002F800BC070318BD0A0030BD0700303D0232308C
:1003080003193C02031C89298A2962290800640010
:100318008001840A04060319003404068C29013478
:0203280000349F
:02400E00713F00
:00000001FF
